:100000000C9473120C949D120C949D120C949D12DE
:100010000C949D120C949D120C949D120C949D12A4
:100020000C949D120C949D120C949D120C949D1294
:100030000C949D120C94B6450C949D120C949D1238
:100040000C949D120C943A8E0C94E5840C949D12A1
:100050000C94DE3E0C94D43E0C949D120C949D1294
:100060000C949D120C949D120C949D120C949D1254
:100070000C94D1380C949C380C949D120C949D12C5
:100080000C949D120C949D120C949D126F3C743C28
:10009000793C833CB13CB13C8D3C953C9D3CA73CBC
:1000A0007084738466846A848A848A8477847B8477
:1000B00081848584084AD73B3BCE016E84BCBFFD5A
:1000C000C12F3D6C74319ABD56833DDA3D00C77F28
:1000D00011BED9E4BB4C3E916BAAAABE00000080C1
:1000E0003F05A84CCDB2D44EB93836A9020C50B950
:1000F000918688083CA6AAAA2ABE000000803F007C
:100100004E414E494E495459494E46CDCCCC3D0AFC
:10011000D7233C17B7D13877CC2B329595E6241FDF
:10012000B14F0A000020410000C84200401C462098
:10013000BCBE4CCA1B0E5AAEC59D7400407A10F36B
:100140005A00A0724E18090010A5D4E80000E87605
:1001500048170000E40B54020000CA9A3B0000005C
:10016000E1F505000080969800000040420F000075
:1001700000A08601000000102700000000E8030036
:100180000000006400000000000A00000000000100
:1001900000000000002C76D888DC674F0823DFC100
:1001A000DFAE59E1B1B796E5E3E453C63AE65199BB
:1001B0007696E8E6C28426EB898C9B62ED407C6FE4
:1001C000FCEFBC9C9F40F2BAA56FA5F490055A2A9B
:1001D000F75C936B6CF9676DC11BFCE0E40D47FEA7
:1001E000F520E6B500D0ED902E030094357705009C
:1001F00080841E080000204E0A000000C80C333323
:1002000033330F986E12831141EF8D2114893BE631
:100210005516CFFEE6DB18D1844B381BF77C1D90BA
:100220001DA4BBE424203284725E228100C9F12423
:10023000ECA1E53D27434F4D4D554E4943415449AF
:100240004F4E0044525952554E004552524F525350
:1002500000494E464F004543484F0020746F6F20C1
:100260006C6F6E6720657874727573696F6E20703D
:10027000726576656E7465640A0020636F6C642035
:10028000657874727573696F6E2070726576656ECD
:100290007465640A0047322F47332062616420701E
:1002A0006172616D65746572730A00536C65657087
:1002B0002E2E2E00436C69636B20746F2052657381
:1002C000756D652E2E2E004E6F204D6F76652E00BB
:1002D000456E642066696C65206C6973740A00421F
:1002E0006567696E2066696C65206C6973740A00C5
:1002F0004E6F206D656469610A00286E6F20666923
:100300006C65290043757272656E742066696C6550
:100310003A20005344207072696E74696E672062DF
:1003200079746520004E6F74205344207072696E9A
:1003300074696E670A002569730025696D20256957
:1003400073002569682025696D202569730025697A
:1003500064202569682025696D2025697300256959
:100360007920256964202569682025696D20256923
:1003700073005072696E742074696D653A200020B4
:10038000573A00436F6F6C696E672E2E2E004865DA
:100390006174696E672E2E2E006F6B006F666600AB
:1003A000560251024A024302350244454255473A39
:1003B000004D3131322053687574646F776E004D93
:1003C0003131332053003344205072696E746572AA
:1003D000204F46462E004348414D4245525F54450A
:1003E0004D50455241545552450042414259535493
:1003F000455050494E470041524353004D4F5449D8
:100400004F4E5F4D4F44455300544845524D414C6B
:100410005F50524F54454354494F4E004C4F4E4746
:100420005F46494C454E414D45004155544F52455C
:10043000504F52545F53445F5354415455530052EC
:100440004550454154005344434152440050524F9B
:100450004D50545F535550504F525400454D4552E6
:1004600047454E43595F5041525345520043415313
:10047000455F4C494748545F4252494748544E45AE
:10048000535300544F47474C455F4C4947485453DA
:1004900000534F4654574152455F504F5745520005
:1004A0004255494C445F50455243454E54004C45DB
:1004B00056454C494E475F44415441005A5F5052A3
:1004C0004F42450052554E4F5554004155544F4CE4
:1004D0004556454C005052494E545F4A4F420050D9
:1004E000524F4752455353004155544F5245504F78
:1004F00052545F54454D5000564F4C554D45545243
:10050000494300454550524F4D0042494E415259D2
:100510005F46494C455F5452414E53464552005345
:10052000455249414C5F584F4E5F584F4646004632
:1005300049524D574152455F4E414D453A4D6172CA
:100540006C696E206275676669782D322E302E7860
:1005500020284A616E203230203230323120313250
:100560003A30353A35362920534F555243455F438B
:100570004F44455F55524C3A6769746875622E6303
:100580006F6D2F4D61726C696E4669726D77617225
:10059000652F4D61726C696E2050524F544F434F1E
:1005A0004C5F56455253494F4E3A312E30204D4103
:1005B0004348494E455F545950453A3344205072A0
:1005C000696E7465722045585452554445525F43D4
:1005D0004F554E543A3120555549443A6365646548
:1005E000326132662D343161322D343734382D3951
:1005F0006231322D6335356336326633363766669F
:100600000A002F2F00205200416363656C65726100
:1006100074696F6E3A2050003F4A206F7574206FE6
:10062000662072616E67652028302E303120746F2D
:1006300020302E33290A004D323036205800205801
:100640000020204D61783A2000200020204D696E66
:100650003A2000536F667420656E6473746F707314
:100660003A200046523A0020466C6F773A2000202C
:10067000643A0020693A0020703A00496E76616C55
:1006800069642065787472756465720A00646973C0
:1006900000656E0043290A0061626C656420286D64
:1006A000696E2074656D702000436F6C64206578FE
:1006B000747275646573206172652000486F6D65A2
:1006C00020257325732573204669727374004F6665
:1006D0006673657473204170706C6965640045725F
:1006E000723A20546F6F206661722100546F6F2040
:1006F0006661722066726F6D207265666572656EE6
:10070000636520706F696E740A00454550524F4D05
:10071000204F4B0A004F4646004F4E00506F776502
:10072000722D6C6F7373207265636F7665727920BA
:10073000004D383400446F6E65207072696E7469C4
:100740006E672066696C650A004D3737004D33319E
:1007500000496E76616C69642065787472756465B1
:10076000720A004572726F722077726974696E67DF
:1007700020746F20454550524F4D210A0021212001
:100780004B494C4C20636175736564206279207419
:100790006F6F206D75636820696E6163746976653B
:1007A0002074696D65202D2063757272656E7420EA
:1007B000636F6D6D616E643A200053544F50504525
:1007C000442E20005072696E7465722073746F70CD
:1007D0007065642064756520746F206572726F7235
:1007E000732E2046697820746865206572726F7276
:1007F00020616E6420757365204D39393920746F1E
:1008000020726573746172742E202854656D706552
:100810007261747572652069732072657365742ED8
:100820002053657420697420616674657220726556
:100830007374617274696E67290A004E6F20436891
:1008400065636B73756D2077697468206C696E657C
:10085000206E756D6265722C204C617374204C693A
:100860006E653A20004E6F20436865636B73756D4B
:100870002077697468206C696E65206E756D62659D
:10088000722C204C617374204C696E653A200063B1
:100890006865636B73756D206D69736D61746368F2
:1008A0002C204C617374204C696E653A20004C69B1
:1008B0006E65204E756D626572206973206E6F746F
:1008C000204C617374204C696E65204E756D6265B5
:1008D000722B312C204C617374204C696E653A2068
:1008E000004D3131300053442072656164206572DF
:1008F000726F720A00627573793A20706175736560
:100900006420666F7220696E7075740A0062757378
:10091000793A2070617573656420666F7220757313
:1009200065720A00627573793A2070726F6365733D
:1009300073696E670A0053442063617264206572B4
:10094000726F72004E4F54494345004D65646961B2
:1009500020496E736572746564004D3130303053D8
:1009600000506C6561736520526573657400505268
:10097000494E5445522048414C544544004B494C43
:100980004C45442E20005072696E74657220686177
:100990006C7465642E206B696C6C28292063616C13
:1009A0006C6564210A00323032312D30312D303502
:1009B000004D4B53204834335F56312E33300062A4
:1009C00075676669782D322E302E7800011500008B
:1009D000023C43000000150000025F4300000315C5
:1009E000000002304500001015000002E044000045
:1009F0000016000002823F0000021500000238438A
:100A000000000023000002915B00000223000002AE
:100A1000915B00000423000002915B000020230092
:100A20000002915B00003623000002915B00003859
:100A300023000002915B00003A23000002915B005A
:100A4000003423370102253F0000302300000291CB
:100A50005B000000240000023D5E000080160000E4
:100A600002EF5F00002016000002745B0000001A15
:100A7000BF09100000964220700000200000D941FC
:100A8000004AB1091000009642104AA60910000061
:100A900096420020FC12020000D59F0420001302A1
:100AA0006E45634200220E01024A3F634206333420
:100AB00018020000A09F1023000002184000001040
:100AC00040001302975A0000103400130200008BFC
:100AD000402040000002F86200000037031302B01B
:100AE0005C86410237071302B05C864104370B1362
:100AF00002B05C86410038000002A65F00000825B5
:100B0000000002676200000B25000002D6610000B1
:100B100000263B0102795A6F9F0426390102675A69
:100B200063420027F71202833FB4405023F71202BA
:100B3000B65A00001027F712020000A0400827084C
:100B40000102749E63420033D713020000A09F028B
:100B500033DB13020000A09F0433DF13020000A068
:100B60009F00416E0102EF5C634202416C0102EFA3
:100B70005C634204416A0102EF5C63420641680122
:100B800002EF5C63420841660102EF5C63420A4186
:100B9000640102EF5C63420C41620102EF5C63425C
:100BA0000E41600102EF5C634210415E0102EF5CA6
:100BB000634212415C0102EF5C6342303300000289
:100BC0000000424140330000200000C542002934AB
:100BD0000F02055E6F9F0429380F02055E6F9F08A4
:100BE000293C0F02055E6F9F002A440F02335D6FA0
:100BF0009F042A480F02335D6F9F082A4C0F02336F
:100C00005D6F9F0C2A500F02075D6F9F282A200FEF
:100C1000029D5D63422C2A240F029D5D6342302AAF
:100C2000280F029D5D6342342A2C0F02695D6342E6
:100C30003C2A5C0F022E5B6F9F402A600F02105B04
:100C40006F9F442A640F02F25A6F9F482A540F0282
:100C5000D45A634200395A01024C5B63420239584C
:100C600001024C5B634204395601024C5B6342064D
:100C700026440102C25A63422037000002024000AB
:100C8000002024000002983F00008023000002CFD3
:100C90003F00006030000002BD3F000070300000E7
:100CA00002333F00001224000002905B0000102479
:100CB0000000028F5B00002224DF13020000F042DC
:100CC0000021440102AD3F63421238000002343F6C
:100CD00000001029400F02D75D6F9F2030000002F6
:100CE00073440000223000000287430000243000DB
:100CF00000027541000000310000200000E24120A8
:100D0000310000200000E24140310000200000E2FC
:100D10004160310000200000E241803100002000ED
:100D200000E241A0310000200000E241C03100009B
:100D3000200000E241E0310000200000E2410032EA
:100D40000000200000E24120320000200000E241CB
:100D50002630000002D64000002830000002C240C9
:100D60000000403000000254400000003800000243
:100D700000005D4000110000200000C9414011004A
:100D800000200000C94180110000200000C941C0BE
:100D9000110000200000C941000000000200000016
:100DA0000041626F7274696E672E2E2E004E6F20A6
:100DB0004D656469610043616E6E6F7420656E7489
:100DC0006572207375626469723A20004D32340096
:100DD0004D3235005072696E742041626F727465D5
:100DE00064002573256300454550524F4D20496EE0
:100DF000697469616C697A65640A00000096430051
:100E00000096430000A0400000C8410000A042003E
:100E100000A0420000C8430000BA42B80B0000B86E
:100E20000B000064000000102700003B2000202081
:100E30004D343133205300506F7765722D4C6F73F2
:100E400073205265636F766572793A002044002002
:100E5000490020204D333031205000504944207348
:100E6000657474696E67733A0020204D3230362005
:100E70005800486F6D65206F66667365743A002090
:100E80004A0020530020204D32303520420041647A
:100E900076616E6365643A20423C6D696E5F73658E
:100EA000676D656E745F74696D655F75733E205321
:100EB0003C6D696E5F66656564726174653E205461
:100EC0003C6D696E5F74726176656C5F66656564C2
:100ED000726174653E204A3C6A756E635F64657634
:100EE0003E0020540020520020204D32303420504B
:100EF00000416363656C65726174696F6E2028756B
:100F00006E6974732F7332293A20503C7072696E87
:100F1000745F616363656C3E20523C7265747261FC
:100F200063745F616363656C3E20543C74726176E8
:100F3000656C5F616363656C3E0020204D3230312B
:100F40002058004D6178696D756D20416363656C53
:100F500065726174696F6E2028756E6974732F7382
:100F600032293A00204500205A0020590020204D07
:100F70003230332058004D6178696D756D2066659B
:100F8000656472617465732028756E6974732F735C
:100F9000293A0053746570732070657220756E690C
:100FA000743A0020440020204D323030205300207D
:100FB00044697361626C65640A0046696C616D65C1
:100FC0006E742073657474696E67733A0020286DBF
:100FD0006D29002020473231202020203B20556EF3
:100FE00069747320696E206D6D0024F4D43050C391
:100FF0008E20C2A24017828B7011127A910D816CE3
:10100000D90AA861E108C7586607615143061E4B1B
:101010005D05C145A7041A411104093D98037139C2
:1010200031034036DB0265339102D4305402802E06
:101030001D02632CEE01752AC501B028A0011027FE
:1010400081018F2564012B244B01E0223401AC2166
:101050001F018D200D01801FFC00841EED00971DD7
:10106000DF00B81CD200E61BC600201BBC00641ABF
:10107000B200B219A8000A19A0006A189900D11785
:10108000910040178B00B516840031167E00B31511
:1010900079003A157300C7146F0058146A00EE13F4
:1010A00066008813630025135E00C7125B006C1294
:1010B000570015125400C111510070114F00211139
:1010C0004B00D61049008D10470046104400021016
:1010D0004200C00F4000800F3E00420F3C00060F50
:1010E0003B00CB0E3800930E37005C0E3500270E08
:1010F0003400F30D3200C10D3100900D3000600D51
:101100002E00320D2D00050D2C00D90C2B00AE0C3D
:101110002900850C29005C0C2700350C27000E0CDB
:101120002600E80B2400C40B2400A00B23007D0B39
:1011300023005A0B2100390B2100180B2000F80A5C
:101140001F00D90A1E00BB0A1E009D0A1D00800A4E
:101150001D00630A1C00470A1B002C0A1B00110A11
:101160001A00F7091A00DD091900C4091900AB09B2
:101170001900920917007B091800630917004C0930
:10118000160036091600200916000A091500F50890
:101190001500E0081400CC081400B8081400A408D6
:1011A0001400900813007D0812006B081300580803
:1011B000120046081200340811002308110012081A
:1011C000110001081100F0071000E0071000D0071F
:1011D0001000C0071000B0070F00A1071000910712
:1011E0000E0083070F0074070F0065070E005707F6
:1011F0000E0049070E003B070D002E070E002007CA
:101200000D0013070D0006070D00F9060C00ED0692
:101210000D00E0060C00D4060C00C8060C00BC064D
:101220000C00B0060C00A4060B0099060C008D06FD
:101230000B0082060B0077060B006C060B006106A4
:101240000A0057060B004C060A0042060A00380640
:101250000A002E060A0024060A001A060A001006D2
:10126000090007060A00FD050900F4050900EB0561
:101270000900E2050900D9050900D0050900C705E4
:101280000900BE050900B5050800AD050800A50563
:1012900009009C050800940508008C0508008405D9
:1012A00008007C050800740508006C05070065054A
:1012B00008005D050700560508004E0507004705B4
:1012C00007004005080038050700310507002A051A
:1012D0000700230507001C050600160507000F057B
:1012E00007000805060002050700FB040600F504D8
:1012F0000700EE040600E8040600E2040700DB0431
:101300000600D5040600CF040600C9040600C30485
:101310000600BD040600B7040600B1040500AC04D5
:101320000600A6040600A00405009B040600950420
:101330000500900406008A04050085040500800469
:1013400006007A04050075040500700405006B04AE
:10135000050066040500610405005C0405005704EF
:101360000500520405004D0405004804050043042F
:1013700005003E0404003A0405003504050030046D
:1013800004002C04050027040400230405001E04A7
:1013900004001A04040016040500110404000D04DE
:1013A0000400090405000404040000040400FC0314
:1013B0000400F8030400F4030400F0030400EC0349
:1013C0000400E8030400E4030400E0030400DC0379
:1013D0000400D8030400D4030400D0030400CC03A9
:1013E0000400C8030300C503030024F404D9201B30
:1013F000C40C5C0E9804C4095F0265077101F40512
:10140000F900FB04B30048048700C10369005803D6
:10141000550003034500BE023A0084023100530226
:101420002A002902250004022000E4011C00C80152
:101430001900AF0117009801140084011300710115
:1014400010006101100051010E0043010D00360132
:101450000B002B010B0020010B00150109000C01F2
:10146000090003010800FB000800F3000800EB007E
:101470000700E4000600DE000600D8000600D200E7
:101480000600CC000500C7000500C2000500BD0035
:101490000400B9000400B5000400B1000400AD0070
:1014A0000400A9000400A5000300A20003009F009F
:1014B00004009B00030098000300950002009300C5
:1014C0000300900003008D0002008B0003008800E1
:1014D00002008600020084000300810002007F00F9
:1014E00002007D0002007B0002007900020077000C
:1014F0000100760002007400020072000100710019
:1015000002006F0002006D0001006C0002006A0022
:10151000010069000200670001006600010065002B
:10152000010064000200620001006100010060002F
:1015300001005F0002005D0001005C0001005B0033
:1015400001005A0001005900010058000100570035
:101550000100560001005500010054000100530035
:101560000000530001005200010051000100500032
:1015700001004F0001004E0000004E0001004D0030
:1015800001004C0001004B0000004B0001004A002C
:101590000100490001004800000048000100470028
:1015A0000100460000004600010045000000450023
:1015B000010044000100430000004300010042001C
:1015C0000000420001004100000041000100400015
:1015D00001003F0000003F0001003E0000003E000F
:1015E00001003D0000003D0001003C0000003C0007
:1015F00000003C0001003B0000003B0001003A00FD
:1016000000003A00010039000000390001003800F4
:1016100000003800000038000100370000003700EB
:1016200001003600000036000000360001003500E1
:1016300000003500000035000100340000003400D7
:1016400000003400010033000000330000003300CC
:1016500001003200000032000000320001003100C1
:1016600000003100000031000100300000003000B7
:101670000000300001002F0000002F0000002F00AC
:1016800000002F0001002E0000002E0000002E00A0
:1016900001002D0000002D0000002D0000002D0095
:1016A00001002C0000002C0000002C0000002C0089
:1016B00001002B0000002B0000002B0000002B007D
:1016C00001002A0000002A0000002A0000002A0071
:1016D0000100290000002900000029000000290065
:1016E0000000290001002800000028000000280058
:1016F000000028000000280001002700000027004B
:10170000000027000000270000002700010026003D
:101710000000260000002600000026000000260031
:101720000100250000002500000025000000250024
:101730000000250000002500010024000000240016
:101740000000240000002400000024000100230009
:1017500000002300000023000000230000002300FD
:1017600000002300000023000100220000002200EE
:1017700000002200000022000000220000002200E1
:1017800001002100000021000000210000002100D4
:1017900000002100000021000000210001002000C5
:1017A00000002000000020000000200000002000B9
:1017B00000002000000020000000200001001F00A9
:1017C00000001F0000001F0000001F0000001F009D
:1017D00000001F0000001F0001001E0000001E008E
:1017E00000001E0000001E000000043700001E293B
:1017F0000000511B00005810000010090000CC042C
:101800000000780200004101000000004843000091
:1018100048430000484300000000000000000000B2
:10182000000053657474696E67732053746F72653A
:1018300064008030000000200420243728372B3734
:101840000000222404330000002004204020442013
:101850000626303432343434363438343A343C3476
:101860003E34403442344434000000200420402000
:10187000442006260021000004200B2044200022E2
:101880000222002708270000001A004A104A000020
:10189000002004204020442000270037023704376E
:1018A000000000200420402044203C2A402A442AF2
:1018B00000000020042040204420002700000020D9
:1018C000042040204420003902390439000000205F
:1018D00004204020442000270041024104410641E9
:1018E00008410A410C410E41104112410000002004
:1018F0000420402044200027482A282A2C2A302A65
:10190000342A382A000000200420402044200027E8
:10191000002A042A082A0C2A102A00000020042089
:1019200040204420002700290429082910291229D1
:10193000000000312031403160318031A031C031B0
:10194000E0310032203200000020042040204420FA
:1019500000273033403300220222082700350235A9
:1019600004350033023304330000002004204020FB
:1019700044200027000000200420402044200027AD
:1019800000000020042040204420002700260426D8
:1019900000000020042040204420002720500000A8
:1019A0000020042040204420002710500000002088
:1019B00004204020442000270000001A0000473186
:1019C000205A2D3130004730205825642059256495
:1019D00020462564004731205A3130004731205AD3
:1019E0002D31300047302058256420592564204689
:1019F0002564004731205A3130004731205A2D31BB
:101A0000300047302058256420592564204625643D
:101A1000004731205A3130004731205A2D313000F3
:101A20004730205825642059256420462564004706
:101A300031205A313000473238205A004730205880
:101A400025642059256420462564004731205A31F9
:101A500030004732380047323800473930004730CD
:101A6000202563257325642E2530326420462564A5
:101A700000473931004D3834202563004D31303076
:101A80003000473238004D353030004D35303100B0
:101A90004D3530320A4D3530300000706C65617361
:101AA000652077616974005049442069732061752D
:101AB000746F74756E696E67004739300047312066
:101AC00045256420462564004739310054300068BC
:101AD0006561742100506C6561736520776169747C
:101AE000206E6F7A7A6C65004E4F5449434500472B
:101AF000393000473120452D2564204625640047B4
:101B0000393100543000686561742100506C6561A2
:101B100073652077616974206E6F7A7A6C65004E08
:101B20004F544943450000BA1901AE1902A01903E8
:101B300092190482190B82193982193D821905768E
:101B400019066A190748191A48190F3219331C194E
:101B500037061935EE1830CE1831BE183232192E2C
:101B6000B2182FA2183890182488183C7818416AA7
:101B7000184648184942181E3618406A1947321844
:101B8000000000DB0FC93F45BCDA3F8FB30240FCC9
:101B9000F0274056946140FE4B9B4084A5D840E01E
:101BA000231841346A5641E859974164DBD5416EA8
:101BB000271742B4B75542CE1A9742C8AED542B5A0
:101BC000885A43D40684BFA65FA7BF7443E0BF1002
:101BD000B11AC01C2C58C0E8F697C0B849D6C04E00
:101BE0004E17C124D355C1802497C1A0B5D5C112C9
:101BF0001A17C244AE55C2781797C26CACD5C267EB
:101C0000885AC320746F6F206C6F6E67206578747C
:101C1000727573696F6E2070726576656E74656437
:101C20000A0020636F6C6420657874727573696F45
:101C30006E2070726576656E7465640A007C3C3E49
:101C40005E2B3D3F2F5B5D3B2C2A225C00220A006D
:101C5000656E7175657565696E672022006F6B0032
:101C6000526573656E643A20006572726F722077F8
:101C7000726974696E6720746F2066696C650A000A
:101C8000446F6E6520736176696E672066696C6566
:101C90002E0A004D323900504944204175746F744A
:101CA000756E65206661696C6564212042616420FF
:101CB0006578747275646572206E756D6265720AFE
:101CC0000023646566696E652044454641554C5461
:101CD0005F005049442074756E696E6720646F6EB2
:101CE00065004175746F74756E65206661696C6519
:101CF00064212054696D656F75742E004175746F91
:101D000074756E65206661696C65642E2054656D1E
:101D1000706572617475726520746F6F2068696791
:101D2000682E004175746F74756E65206661696C0C
:101D300065642E20426164206578747275646572F2
:101D40002E004B6420004B6920004B70200050494E
:101D500044204175746F74756E652066696E697391
:101D6000686564212050757420746865206C617307
:101D700074204B702C204B6920616E64204B6420D2
:101D8000636F6E7374616E74732066726F6D206220
:101D9000656C6F7720696E746F20436F6E6669673C
:101DA00075726174696F6E2E680A00504944204153
:101DB00075746F74756E65206661696C6564212049
:101DC00074696D656F75740A0050494420417574DB
:101DD0006F74756E65206661696C65642120546559
:101DE0006D706572617475726520746F6F206869BB
:101DF00067680A00204B643A2000204B693A2000B3
:101E0000204B703A20000A20436C61737369632091
:101E1000504944200A002054753A2000204B753A5E
:101E20002000206D61783A2000206D696E3A200014
:101E300020643A200020626961733A2000504944CE
:101E4000204175746F74756E652073746172740AC5
:101E500000504944204175746F74756E6520666149
:101E6000696C6564212054656D706572617475726A
:101E70006520746F6F20686967680A0050494420C4
:101E80004175746F74756E6500506C656173652083
:101E9000636F6E6669726D2E0057726974696E6742
:101EA00020746F2066696C653A20006672657368FD
:101EB00000646F696E67002066696C653A20004EA9
:101EC0006F77200070012C0190012701B0012201E1
:101ED000C0011D01F00118011002130130020E01B2
:101EE0006002090190020401C002FF000003FA0031
:101EF0004003F5008003F000D003EB002004E6006F
:101F00007004E100E004DC004005D700C005D20009
:101F10004006CD00D006C8008007C3003008BE00D0
:101F2000F008B900C009B400B00AAF00B00BAA00B5
:101F3000D00CA500000EA000500F9B00C010960012
:101F40005012910000148C00C0158700B017820059
:101F5000B0197D00D01B7800001E730040206E0079
:101F600090226900F024640040275F0090295A0005
:101F7000E02B5500102E500020304B001032460050
:101F8000E033410090353C001037370070383200A4
:101F9000A0392D00B03A2800A03B2300603C1E0071
:101FA000103D1900903D1400103E0F00703E0A00D5
:101FB000C03E0500003F0000403FFBFF803FF6FFB2
:101FC000C03FF1FF2020506C616E6E6572427566F5
:101FD00066657242797465733A20002046726565C1
:101FE000204D656D6F72793A2000436F6D70696C9A
:101FF00065643A204A616E20323020323032310A34
:1020000000204C61737420557064617465643A20DB
:10201000323032312D30312D3035207C20417574F5
:10202000686F723A20286E6F6E652C206465666159
:10203000756C7420636F6E666967290A0062756744
:102040006669782D322E302E780A004D61726C69E7
:102050006E0020536F6674776172652052657365F8
:10206000740A00205761746368646F672052657357
:1020700065740A002042726F776E206F757420526B
:10208000657365740A002045787465726E616C2012
:1020900052657365740A00506F77657255700A0057
:1020A00073746172740A004732385859004D3831E0
:1020B000004D3130303100205A3A0020593A00208A
:1020C000583A00656E6473746F7073206869743A6F
:1020D0002000000000010200090A000000000403C3
:1020E00008070000000000000000000000000000E1
:1020F000000043616E6E6F74206F70656E207375A3
:1021000062646972200053442063617264206F6BC3
:102110000A006F70656E526F6F74206661696C653E
:10212000640A00766F6C756D652E696E6974206641
:1021300061696C65640A004E6F20534420636172CC
:10214000640A000A4D3234004D3233202573002ECC
:102150000A006F70656E206661696C65642C2046AC
:10216000696C653A200046696C652073656C65632F
:102170007465640A002053697A653A200046696CE8
:1021800065206F70656E65643A2000454E442053AB
:102190005542524F5554494E450A002220706F73E4
:1021A000002220706172656E743A220053554252CB
:1021B0004F5554494E452043414C4C207461726741
:1021C00065743A220053756263616C6C204F7665CA
:1021D00072666C6F77004578636565646564206D31
:1021E000617820535542524F5554494E45206465FD
:1021F0007074683A002E0A0044656C6574696F6EED
:10220000206661696C65642C2046696C653A200023
:1022100046696C652064656C657465643A002F617D
:1022200075746F25632E670020436F756E74205898
:102230003A00453100626564002C2073797374653F
:102240006D2073746F7070656421204865617465DA
:10225000725F49443A2000544845524D414C205247
:10226000554E4157415900546865726D616C20525A
:10227000756E617761790048656174696E672046A3
:1022800061696C65640048656174696E67206661A8
:10229000696C656400202D20496E76616C6964204C
:1022A0006578747275646572206E756D62657220F2
:1022B000210A004572723A204D415854454D500054
:1022C0004D415854454D5020747269676765726579
:1022D00064004572723A204D494E54454D50004DB0
:1022E000494E54454D502074726967676572656444
:1022F00000202F0020403A0020453A00205A3A00A2
:1023000020593A00583A0000002200250028002BEE
:102310000000002100240027002A0002020202021D
:102320000202020404040404040404030303030378
:10233000030303010101010101010101020408106D
:10234000204080010204081020408001020408108F
:102350002040808040201008040201220A00556EAF
:102360006B6E6F776E20636F6D6D616E643A2022C5
:10237000006563686F3A004572726F723A00204DD3
:1023800039322058004D32342053256C64205425B6
:102390006C64004739322E392045257300473120BF
:1023A000462564004739322E39205A2573004731BB
:1023B000205A3020463230300047312058257320D3
:1023C000592573204633303030004D31303620509F
:1023D000256920532569004D313039205325690086
:1023E0004D32303020442573004732385859004769
:1023F00039322E39204530205A300A47315A257358
:102400000020496E76616C69642065787472756429
:10241000657220006F70656E0054524947474552FF
:102420004544003A20007A5F6D696E00795F6D69FE
:102430006E00785F6D696E005265706F7274696EC0
:102440006720656E6473746F702073746174757344
:102450000A00486F6D696E67204661696C656400AB
:102460000000000000000000000000005761726ED4
:10247000696E673A20486F6D696E672042756D70AE
:102480002044697669736F72203C20310A00020291
:10249000040000484300004843000048430000A0F7
:1024A000400000A04000000040FFFFFF4361703A81
:1024B0000045202553003344205072696E746572C4
:1024C0002052656164792E005072696E74696E677E
:1024D0002E2E2E005072696E7420506175736564E3
:1024E0000000AFB091B011241FBECFEFD0E4DEBF2B
:1024F000CDBF18E0A0E0B1E0E2EFF1E801E00BBFF2
:1025000002C007900D92A436B107D9F728E1A4E6DE
:10251000B8E001C01D92AB37B207E1F712E1C2E7A4
:10252000D2E104C02197FE010E9407BDC137D10747
:10253000C9F70E9482AD0C94ECC00C9400002F925D
:102540003F924F925F926F927F928F929F92AF9243
:10255000BF92CF92DF92EF92FF920F931F93CF9390
:10256000DF93CDB7DEB7C755D1090FB6F894DEBFFC
:102570000FBECDBF68968FAF6897009171086596C2
:102580000FAF659781E080937108809165188D3455
:1025900009F49BC2843511F40C944F23873411F055
:1025A0000C94722300916318109164180430110583
:1025B00009F481C138F4809193110230110508F0BB
:1025C000E8C018C00A35110509F4C1C150F405313D
:1025D000110511F40C9474230C31110509F4A9C1EF
:1025E00070C20B35110509F4B6C10C35110509F49B
:1025F000B7C167C2813011F00C9474230E946E9AA7
:1026000088E298E10E9410A08091F51283FD85C0B8
:102610002091E3133091E4134091E5135091E613B8
:102620006091341870913518809136189091371850
:102630000E942EB6882309F470C08091F412811193
:102640001BC06091FC127091FD128091FE1290915E
:10265000FF120E948FBE209144013091450121500C
:1026600031096217730744F40E940A9E8AE792E0D8
:102670000E94679D11E001C010E02091E3133091AA
:10268000E4134091E5135091E61360913418709172
:10269000351880913618909137180E9422BD6B0131
:1026A0007C0120E030E0A9010E9483BF87FF04C0C5
:1026B000F7FAF094F7F8F09420914001309141013D
:1026C0004091420150914301C701B6010E9494B666
:1026D00020E030E048E453E40E9483BF18163CF445
:1026E0000E940A9E8BE592E00E94679D02C0112322
:1026F000A1F08091341890913518A0913618B091BE
:1027000037188093E3139093E413A093E513B093E9
:10271000E61384E398E10E94AD572AE037ED43E2E7
:102720005CE360915201709153018091540190914A
:1027300055010E9494B66B017C0160910801709173
:102740000901072E000C880B990B0E9435B69B01DE
:10275000AC01C701B6010E9494B669837A838B836A
:102760009C838E010F5F1F4F24E338E140E358E163
:102770006CE278E188E298E10E946C8380E1E8E213
:10278000F8E1A7EDB3E101900D928A95E1F70C9481
:102790007423813011F00C94742333243394023069
:1027A000110509F0312C0E946E9A82E50E94619A0F
:1027B000882309F44EC00E94E0996B017C0120E05F
:1027C00030E0A9010E942EB6882311F40C94E52470
:1027D0002091D7133091D8134091D9135091DA1327
:1027E00028A339A34AA35BA38091DB139091DC1348
:1027F000A091DD13B091DE138CA39DA3AEA3BFA364
:102800008090281890902918A0902A18B0902B1822
:1028100040902C1850902D1860902E1870902F1802
:10282000A501940168A179A18AA19BA10E942EB65D
:1028300081110C948123A30192016CA17DA18EA131
:102840009FA10E942EB6882311F40C94E5240C94C9
:10285000812389E40E94619A882329F00E94E099EB
:102860006B017C0103C0C12CD12C76018AE40E944B
:10287000619A882311F40C9437240E94E09968A788
:1028800079A78AA79BA720E030E0A901C701B6017C
:102890000E942EB681110C94452420E030E0A9015D
:1028A00068A579A58AA59BA50E942EB681110C94D6
:1028B00045240C94E52480E50E94619A882329F040
:1028C0000E949C996B017C0103C0C12CD12C760124
:1028D00083E50E94619A882361F00E94E09920E0DC
:1028E00030E04AE754E40E9494B60E9496BE6B0121
:1028F0007C010E94D2548091A812811105C060E031
:102900008BEA92E00E94EAA30E94D984C60ED71EE9
:10291000E81EF91E0E94D984DC01CB018C199D09A7
:10292000AE09BF09B7FD02C00C9474230E94B239EE
:10293000F1CF0E945F9981110C942E2860E08FE402
:102940000E94539B81110C9474230C942E28109296
:10295000F6120C9474238FE08093F6120C94742377
:1029600080916218882349F1893009F0A6C050E7A8
:10297000A52E51E0B52E67EDE62E63E1F62ED12CA3
:1029800000E010E0D5018D915D010E94619A8823DD
:1029900069F00E94E099F7016083718382839383D9
:1029A000133011F401E002C0DD24D3941F5FF4E082
:1029B000EF0EF11C143031F775C020E7222E21E014
:1029C000322E34E1E32E33E1F32E07ED13E119A3A8
:1029D00008A348EEC42E42E1D42E00E010E0D1015D
:1029E0008D911D010E94619A882309F44BC00E94B9
:1029F000E0992B013C01133049F0F601208131812F
:102A0000428153810E9422BD2B013C01A8A1B9A1A2
:102A10002D913D914D915C91C301B2010E9422BD67
:102A20004B015C012DEB37E346E855EB0E9483BF79
:102A300087FD0AC02DEB37E346E855E3C501B40135
:102A40000E942EB61816F4F4133051F44092E3139A
:102A50005092E4136092E5137092E61301E012C005
:102A6000A5019401F70160817181828193810E94A7
:102A700023BDD7016D937D938D939C931397812FE5
:102A80000E94F09F1F5FB4E0EB0EF11CE8A1F9A1DA
:102A90003496F9A3E8A3F4E0CF0ED11C143009F06A
:102AA0009ECF05C0DD2019F00E948FA106C0002333
:102AB00021F083EE93E10E94AD570E94B7A20C94DF
:102AC00074230E94E0930C94742380916318909176
:102AD00064188037910509F4D2C708F08DC08032A0
:102AE000910509F446C4D0F58731910509F4B4C2C3
:102AF000D0F48231910511F40C94B51D48F4823064
:102B0000910508F4E4C1419709F442C20C944C23A6
:102B10008531910509F48AC208F08CC2449709F402
:102B200054C20C944C238B31910509F4AEC338F494
:102B30008931910509F410C308F4A3C298C38D31FB
:102B4000910509F4FFC308F4F5C38E31910509F42A
:102B500000C44F9709F436C40C944C238C3591056E
:102B600011F40C940F1E38F58135910509F4DBC77B
:102B700088F48C34910509F4D0C48D34910509F49E
:102B8000E1C48B34910511F00C944C230E94B1A345
:102B90000C9474238335910509F4E0C708F4D7C772
:102BA0008435910509F4E1C78535910511F40C943C
:102BB000EC1D0C944C238B36910509F4FEC660F491
:102BC0008936910509F4C2C608F0D6C68836910543
:102BD00009F4BCC40C944C238D36910509F4DBC474
:102BE00008F448C78E36910509F4EFC68F36910573
:102BF00009F4FCC60C944C238D3D910511F40C9402
:102C00001F2108F0E6C08B39910509F466C708F06A
:102C1000B5C08537910511F40C94A01E08F094C03E
:102C20008237910511F40C94991E08F42FC783374D
:102C3000910511F00C944C238FE295E00E94679D62
:102C400060E08FE195E00E9431AC60E08AE095E0C1
:102C50000E9431AC61E083E095E00E9431AC61E01C
:102C600088EF94E00E9431AC61E088EE94E00E942D
:102C700031AC60E08FED94E00E9431AC61E085ED15
:102C800094E00E9431AC60E08BEC94E00E9431ACA7
:102C900060E084EC94E00E9431AC60E08CEB94E066
:102CA0000E9431AC60E08EEA94E00E9431AC60E0BA
:102CB00080EA94E00E9431AC60E081E994E00E94F7
:102CC00031AC60E083E894E00E9431AC60E08DE6D6
:102CD00094E00E9431AC60E08CE594E00E9431AC5D
:102CE00060E08DE494E00E9431AC61E086E494E021
:102CF0000E9431AC60E08FE394E00E9431AC60E070
:102D00008AE294E00E9431AC60E08CE194E00E94A1
:102D100031AC61E089E094E00E9431AC60E08CEF7E
:102D200093E00E9431AC61E087EF93E00E9431AC08
:102D300060E08AEE93E00E9431AC60E086ED93E0C3
:102D40000E9431AC0C9474238737910511F40C94D4
:102D5000EA1E10F40C94B01E8837910511F40C94FF
:102D6000ED1E8937910511F00C944C2310928811B7
:102D7000109287110E9457A30C9474238C3C9105E8
:102D800011F40C94811F88F4893C910511F40C9482
:102D90003C1F8B3C910511F40C94621F883C9105FB
:102DA00011F00C944C230C94F51E8E3C910511F4FB
:102DB0000C94C81F10F40C94B51F833D910511F4B9
:102DC0000C9418208C3D910511F40C94DE200C9489
:102DD0004C23853F01E0900711F40C94CD22C8F5F7
:102DE000803921E0920711F40C943B2298F48E3242
:102DF00041E0940711F40C94F4218F3251E09507CF
:102E000011F40C9438228D32914011F00C944C2323
:102E10000C9475218D39B1E09B0711F40C940823B3
:102E200048F48A39914011F00C944C230E941737D2
:102E30000C9474238C3A01E0900711F40C943E2218
:102E4000843F914011F00C944C230E948A4F0C94C3
:102E500074238C3022E0920711F40C94ED2280F45C
:102E6000873F41E0940711F40C94D32210F40C94A2
:102E7000D022883F914011F40C94DC220C944C2316
:102E8000873EB3E09B0711F40C94FA2298F4803A41
:102E9000934011F00C944C232091601830916118EC
:102EA00090915B16926090935B16C9010E94898A8B
:102EB0000C947423883E03E0900711F40C942923AA
:102EC000893E934011F40C942C230C944C2380E500
:102ED0000E94619A882329F00E949C996B017C01D1
:102EE00003C0C12CD12C760183E50E94619A88230E
:102EF00061F00E94E09920E030E04AE754E40E944B
:102F000094B60E9496BE6B017C010E94D2548091BF
:102F1000601890916118009719F00E94677C0AC0B0
:102F200064EB72E0CE0101960E9438B5CE010196A5
:102F30000E94677C1091710883E08093710881E0A2
:102F400080931E18C114D104E104F10431F00E94F1
:102F5000D984C60ED71EE81EF91E80911E1888233C
:102F600011F40C942529C114D104E104F10411F4E5
:102F70000C942A290E94D984DC01CB018C199D096B
:102F8000AE09BF09B7FF02C00C942A290C94252969
:102F900080915C1884FF02C00C942E2980915E18E9
:102FA00087FF02C00C942E2980915F18837011F066
:102FB0000C942E2960E087EC92E00E94EAA35E98D0
:102FC0005E9815985E980C94742380915B1683FF2D
:102FD00025C08FED92E00E94679D80915B1683FF74
:102FE00017C087E796E10E94B38C8BE1E7E7F6E133
:102FF000DE01119601900D928A95E1F760E070E094
:10300000CE0101960E94C18BCE0101960E943D9D8A
:1030100080ED92E00E94679D0C9474230E940A9EAA
:1030200080EF92E00E94679D0C9474230E94DC86DE
:103030000C94742380915B1682FF04C0806480939B
:103040005B1602C00E94688680915B16877F806253
:1030500080935B160C947423E0916018F0916118D2
:103060008081882329F0803209F410823196F8CFCC
:1030700060E080916018909161180E94D08A0C9451
:103080007423809174188150823058F583E50E9432
:10309000619A811126C084E50E94619A811121C044
:1030A00019821A821B821C82E0908008F0908108AD
:1030B000009182081091830820917C0830917D084E
:1030C00040917E0850917F0860917808709179084E
:1030D00080917A0890917B08DE0111966D010E9423
:1030E000D8A083E50E94619A882321F00E94AC99C0
:1030F0000E94A08084E50E94619A8823A9F00E9422
:10310000AC996B017C010E9496A3C0922018D092CA
:103110002118E0922218F0922318CD28CE28CF282B
:1031200019F081E0809374180E949637882381F00B
:103130000E9477860E94B1A383E693E10E941E86D7
:103140001092790F10927A0F10927B0F10927C0FD1
:103150000E940BAD0C94742380915B1682FF03C018
:103160008B7F80935B1680911309882319F081E08F
:103170000E94139780917418813069F482E08093E3
:1031800074180E94D9846093241870932518809332
:1031900026189093271880918F11882319F00E9488
:1031A000F980F9CF0E94D254C090DF13D090E01381
:1031B000E090E113F090E2138091DB139091DC1327
:1031C000A091DD13B091DE134091D7135091D81325
:1031D0006091D9137091DA1340937808509379086D
:1031E00060937A0870937B0880937C0890937D08A5
:1031F000A0937E08B0937F08C0928008D092810887
:10320000E0928208F092830860915A0170915B010C
:1032100080E090E00E9433B64B015C016091580160
:103220007091590180E090E00E9433B62B013C017F
:10323000609156017091570180E090E00E9433B692
:10324000A70196010E9423BD19821A821B821C824B
:10325000FE0131966F017B018C01A3019201C50132
:10326000B4010E94D8A00E940BAD0C9474238091ED
:103270005B1683FD02C00C94742383E50E94619A5F
:1032800081110C9440290C94742383E40E94139AB6
:10329000882319F184E093E00E94679D8091BE1716
:1032A000882391F0BE016F5F7F4F8BEB97E10E9407
:1032B000D37A8E010F5F1F4FD8018D918D01882326
:1032C00039F00E94FB38F8CF8AEF92E00E94679DA8
:1032D0008AE00E94FB380C94742380915B1682FF75
:1032E00023C0C0905716D0905816E0905916F09011
:1032F0005A1683E193E00E94679D4AE0C701B60138
:103300000E9402398FE20E94FB386091531670913F
:10331000541680915516909156164AE00E94023933
:103320000E948B390C94742385E293E00E94679D80
:103330000C94742380916018909161180E94898A7E
:103340000C94742380915B168E7F80935B160C9493
:10335000742380915B1683FD02C00C9474230E9439
:10336000C99380916018909161180E9498890C947B
:10337000742380915B1682FD0E94D25480915B166B
:1033800083FD02C00C94742360E080E50E94539B8F
:10339000182F682F80916018909161180E94D08A30
:1033A00083E50E94619A882321F00E94AC990E94D3
:1033B000A0800E94778611110C9474230E94B1A3FF
:1033C0000C9474230E9462A37B018C0120E831E5F8
:1033D00041E050E00E9484BCC9016DE671E00E94AA
:1033E000DFBC4B015C01C801B70120E13EE040E0D9
:1033F00050E00E9484BCCA01B90128E130E040E0FD
:1034000050E00E9484BC762E672EC62ED72E9CE3F9
:10341000292E312C412C512CC801B701A201910158
:103420000E9484BCF62EE72ECA01B901A2019101C7
:103430000E9484BCCB018E010F5F1F4F8114910449
:1034400099F0EF92FF927F936F936F927F92BF926A
:10345000AF929F928F928EE593E09F938F931F93ED
:103460000F930E94C6B513C0A114B104B1F0EF923E
:10347000FF927F936F936F927F92BF92AF928EE491
:1034800093E09F938F931F930F930E94C6B50FB63F
:10349000F894DEBF0FBECDBF30C0CD2879F0EF92DB
:1034A000FF927F936F936F927F9282E493E09F935A
:1034B0008F931F930F930E94C6B5E9CF892B69F0B4
:1034C000EF92FF927F936F938AE393E09F938F93A2
:1034D0001F930F930E94C6B5DACFEF92FF9286E357
:1034E00093E09F938F931F930F930E94C6B50F9005
:1034F0000F900F900F900F900F9060E0C8010E9406
:1035000027A40E940A9EB80182E793E00E94F39DDF
:103510008AE00E94FB380C947423809174188130E7
:1035200011F00C94742382E0809374180E94D98463
:103530006093241870932518809326189093271869
:103540000C9474230E94D5A30C9474238091F512DB
:1035500083FF02C00C9474230E940E9E87FF02C05A
:103560000C94742383E50E94619A882381F00E9461
:10357000E0990E948FBECB010E94D78D80910013ED
:10358000909101138635910514F40C9445290E94FD
:1035900043AD0C9474238091F51283FF02C00C9408
:1035A00074230E940E9E21968FAF219787FF02C041
:1035B0000C94742383E50E94619A88A3811107C04B
:1035C00082E50E94619A811102C010E036C00E941B
:1035D000E0990E948FBECB010E94D78D809100138D
:1035E000909101138635910514F00C944B290E949B
:1035F000D5A30E940BAD6091001370910113072EAB
:10360000000C880B990B0E9435B66B017C018090F1
:10361000FC129090FD12A090FE12B090FF12A50136
:1036200094010E9483BF181614F40C94692908A110
:10363000002311F40C944F2911E00E9443AD112393
:1036400011F40C94742310916B1267961FAF679757
:1036500010926B1281E080934E0118A619A61AA64B
:103660001BA618AE19AE1AAE1BAE29961FAE29972F
:103670000CE32D960FAF2D971CE161961FAF61975C
:1036800006E466960FAF6697C12CD12C00E8E02EB9
:103690008FEBF82E1CA211E025961FAF2597812CE9
:1036A000912C54016091001370910113072E000CAE
:1036B000880B990B0E9435B6162F072F382E292E0E
:1036C0009601A7010E942EB6882331F12091FC12A9
:1036D0003091FD124091FE125091FF1288A1612F8E
:1036E000702F811109C0832D922D0E942EB6881F44
:1036F0008827881F8CA316C0832D922D0E942EB67A
:1037000087FF0FC080914E01882309F419C11092E0
:103710004E010E940BAD14C11C2D0D2D3E2C2F2CE3
:1037200001C01CA20E94D9846B017C01DC01CB0189
:1037300028AD39AD4AAD5BAD821B930BA40BB50B25
:10374000B7FD35C0D701C60188519C4FAF4FBF4F61
:1037500088AF99AFAAAFBBAF21968FAD21970E94DA
:10376000188E8FE793E00E94679D81149104A10455
:10377000B104B9F0D501C401805F984DAF4FBF4F80
:10378000BC01CD016C197D098E099F0928EE33E03B
:1037900040E050E00E9484BCCA01B9010E946F3928
:1037A00003C08FE30E94FB388AE00E94FB380E942E
:1037B000B2390E94D98460936D0870936E0880932B
:1037C0006F08909370089091FC129CA7A091FD1235
:1037D000ACABB091FE12B8ABE091FF12ECAF292F69
:1037E0003A2F4B2F5E2F612F702F832D922D0E9429
:1037F00022BD2B013C0120E030E0A9010E9483BFE3
:1038000087FF04C077FA709477F87094811491045C
:10381000A104B104F1F420E030E040E85FE3C3012B
:10382000B2010E942EB687FF20C02596FFAD2597D6
:10383000FF2329F085E09DE0A0E0B0E003C080E038
:1038400090E0DC0146015701880E991EAA1EBB1E9E
:103850000CC020E030E040E450E4C301B2010E941B
:1038600083BF181614F4460157012CA1222309F432
:1038700048C088A599A5AAA5BBA5892B8A2B8B2B07
:1038800061F0D701C60128A539A54AA55BA5821B11
:10389000930BA40BB50BB7FD34C02CA53CA948A9CC
:1038A0005CAD29966FAD29972D967FAD2D976196CA
:1038B0008FAD619766969FAD66970E9422BD20E00E
:1038C00030E040EC5FE30E942EB687FD1BCFD701AE
:1038D000C601805A9541AF4FBF4F88A799A7AAA7A5
:1038E000BBA79CA529969FAF2997ACA92D96AFAFF2
:1038F0002D97B8A96196BFAF6197ECAD6696EFAF13
:10390000669780914E01882309F4FCCE81149104BE
:10391000A104B10441F425961FAE2597C12ED02EE7
:10392000E32CF22CBFCEF0E1CF1AF7E2DF0AE10878
:10393000F108C818D908EA08FB08F7FCECCFE2CE7A
:1039400067960FAD679700936B12CEC60E940E9ECE
:10395000182F87FD0AC089E993E00E94679D812F97
:103960000E94188E8AE00E94FB3865961FAD65970D
:10397000109371080C94792A80E50E9435AD81116D
:10398000B3C681E40E94139A882321F06091F71254
:10399000062F02C00FEF10E083E50E94619A882392
:1039A00049F00E94AC998B016F3F710519F010F03E
:1039B0000FEF10E00093F71297C680E50E9435AD37
:1039C000811192C61092F7128FC68EE40E94619AFE
:1039D000882309F489C60E94AC9960930110709302
:1039E000021080930310909304107EC683E50E941A
:1039F000139A882329F083E50E9435AD8093F51250
:103A00000E940A9E8AEA93E00E94679D8091F512C7
:103A1000882369F110EAE12E13E0F12E00E010E0B6
:103A200020E08091F51290E0A0E0B0E0002E04C00C
:103A3000B695A795979587950A94D2F780FF0EC003
:103A4000DD24D394D20E222319F08CE20E94FB389D
:103A5000F701859194910E94679D2D2D0F5F1F4F57
:103A600032E0E30EF11C05301105D9F631CC8CE9BA
:103A700093E02CCC10921E1810924E0135C641E0F6
:103A800060E070E081EB93E00E94CE3683E50E9417
:103A9000619A882371F00E94BC99282F30E02D3361
:103AA00031051CF4809300011FC68CE38093000154
:103AB0001BC60E940A9EC0900001D12CE12CF12C63
:103AC0008FEB93E00E94679D4AE0C701B6010E9418
:103AD00002398AE00E94FB3807C683E50E94619A9A
:103AE000882309F401C60E94BC99182F90E0CD9755
:103AF0000CF01CE3109368080E94D9846B017C01D0
:103B0000212F30E0A8EEB3E00E94D0BCC60ED71E35
:103B1000E81EF91EC0926408D0926508E09266081B
:103B2000F0926708E1C50E94728E0E94D5A30E94A0
:103B3000E2540E94A43768EE73E080E090E00E94B7
:103B4000439D60E086EC93E00E94EAA3CDC580919E
:103B5000F6128F7D80618093F612C6C58091F612B1
:103B60008F7E80628093F612BFC583E50E94619AC2
:103B70008823E9F00E94D98460936D0870936E08E1
:103B800080936F08909370080E94E09920E030E0E5
:103B90004AE754E40E9494B60E9496BE60930101E5
:103BA0007093020180930301909304019DC580915D
:103BB0005C1884FF02C00C946C2980915E1887FF0A
:103BC00002C00C946C2980915F18837011F00C94E2
:103BD0006C290E94E25488C583E50E94139A8823C9
:103BE00009F482C50E94D98460936D0870936E08B1
:103BF00080936F08909370080E94E09920E030E075
:103C00004AE754E40E9494B60E9496BE6093690805
:103C100070936A0880936B0890936C0865C50E9446
:103C20000E9E87FD61C590915C1894FD04C0909133
:103C30005E1897FF0AC0A0E7CA2EA1E0DA2EB0E214
:103C4000EB2EBFE0FB2E10E009C090915F1893703F
:103C500091F7682F81E00E94369E46C5D6018D916E
:103C60006D010E94619A882309F459C0133009F04C
:103C70004FC00E94E0994B015C0120E030E040EA37
:103C800051E40E942EB687FF3AC0A50194016091CD
:103C9000400F7091410F8091420F9091430F0E940D
:103CA0001DBE2B013C019B01AC016091500F709136
:103CB000510F8091520F9091530F0E9494B66093D0
:103CC000500F7093510F8093520F9093530F609148
:103CD000560A7091570A8091580A9091590A0E9489
:103CE00033B6A30192010E9494B60E9496BE6093DF
:103CF000560A7093570A8093580A9093590A8092F3
:103D0000400F9092410FA092420FB092430F07C014
:103D10000E94E099F701648B758B868B978B1F5FF0
:103D2000F4E0EF0EF11C143009F098CF0E94E25835
:103D3000DBC40E94CE978AE396E10E942593D4C407
:103D40008091601890916118009709F401CADC0114
:103D50002C91222309F4FCC960E00E9427A4C4C46A
:103D6000009160181091611894E0F12C40E091509E
:103D700021F1F8018081282F2B7F213421F421812A
:103D80002133D9F407C08035C1F4818180538A3052
:103D900048F013C0813421F0853421F441E002C0A1
:103DA000FF24F39498012E5F3F4F89012F5F3F4F0F
:103DB000F80180818032C9F3DACF41110E940A9E56
:103DC000FF2021F082E096E00E94679DC8010E94DA
:103DD00091398AC40E943CA387C481E080938811F2
:103DE000809387110E9457A37FC40E940E9E182FB4
:103DF00087FD7AC40091131384E40E94619A88239A
:103E000011F40C9491290E94E0996B017C0120E04F
:103E100030E0A9010E942EB6882341F104E010028F
:103E2000F0011124E15FFC4EC082D182E282F38274
:103E300020E030E0A90160910F1370911013809180
:103E40001113909112130E942EB681110CC080E0C4
:103E500090E0A0EEBFE380930F1390931013A09314
:103E60001113B093121301E00C94912980E0809318
:103E700013130E94F35438C40E940E9E87FD34C46D
:103E8000E0E7EE2EE1E0FE2E00E21FE0F0E3CF2EB1
:103E9000FFE0DF2ED7018D917D010E94139A8823C8
:103EA00059F00E94E0990E9496BEF80160837183E8
:103EB000828393830E948B540C5F1F4FC016D106E0
:103EC00049F712C40E940E9E87FD0EC470E7E72ECC
:103ED00071E0F72E00E21FE0D7018D917D010E9475
:103EE000139A882339F00E94E099F80164A375A31E
:103EF00086A397A30C5F1F4FFFE000331F0761F7F6
:103F0000F3C380915D1887FF02C00C9497298091BC
:103F10005E188E7011F00C9497294091540F5091B7
:103F2000550F6091560F7091570F88E096E00E94F0
:103F3000769D4091580F5091590F60915A0F709192
:103F40005B0F85E096E00E94769D40915C0F50915A
:103F50005D0F60915E0F70915F0F82EE9EE00E9498
:103F6000769D8AE00E94FB38BFC380915C1881FF78
:103F700002C00C94DD2980915D1881FF02C00C9471
:103F8000DD2980915E188C7011F00C94DD29ACC392
:103F900060E2E62E63E1F62E10E088E5810F0E94D4
:103FA000139A882359F00E94E099D7016D937D936D
:103FB0008D939C931397812F0E94F09F1F5FB4E015
:103FC000EB0EF11C133049F780915E1887FF02C099
:103FD0000C94362A80915F18837011F00C94362A65
:103FE000409120135091211360912213709123135B
:103FF00087E396E00E94769D40912413509125130B
:1040000060912613709127138AE69FE00E94769DA7
:10401000409128135091291360912A1370912B130A
:1040200087E69FE00E94769D8AE00E94FB385CC391
:104030004090E8125090E9126090EA127090EB12F2
:1040400020911E0130911F014091200150912101CA
:10405000C301B2010E9423BD68A379A38AA39BA3D5
:104060008090EC129090ED12A090EE12B090EF12B2
:10407000209122013091230140912401509125018A
:10408000C501B4010E9423BD6CA37DA38EA39FA391
:10409000C090F012D090F112E090F212F090F31272
:1040A000209126013091270140912801509129014A
:1040B000C701B6010E9423BD68A779A78AA79BA75D
:1040C00020912A0130912B0140912C0150912D011A
:1040D000C301B2010E9423BD2B013C0120912E019E
:1040E00030912F014091300150913101C501B4014F
:1040F0000E9423BD4B015C012091320130913301BC
:104100004091340150913501C701B6010E9423BD91
:104110006B017C010E940A9E83E596E00E94679DE8
:1041200083E50E94139A882321F00E94D0998093FE
:104130001C0180911C01882319F089E197E002C0DD
:1041400085E197E00E94679D8BE496E00E94679D61
:1041500048A159A16AA17BA18EE396E00E94769DB9
:104160004CA15DA16EA17FA18AE69FE00E94769D91
:1041700048A559A56AA57BA587E69FE00E94769D84
:1041800089E496E00E94679D81E496E00E94679D25
:10419000B301A2018EE396E00E94769DB501A401D1
:1041A0008AE69FE00E94769DB701A60187E69FE020
:1041B0000E94769D8AE00E94FB3896C282E40E94AB
:1041C000139A882341F080910801909109019093FE
:1041D00006018093050182E50E94139A882341F02D
:1041E0008091050190910601909309018093080147
:1041F00083E50E94619A882331F00E94AC99709304
:1042000009016093080180915C1890915D18A0915C
:104210005E18B0915F18892B8A2B8B2B09F064C232
:10422000609108017091090183E696E00E94E69D85
:1042300085E20E94FB388AE00E94FB3855C20E944A
:104240000E9EF82E87FD50C283E50E94619A0F2DC5
:104250000F2C000C110B882369F10E94AC99F80116
:10426000EE0FFF1FE25FFE4F71836083000F111F8F
:10427000000F111FF801E05CFE4F7F01072E000CBC
:10428000880B990B0E9435B62AE037ED43E25CE3D8
:104290000E9494B6F801E25AF64F208131814281A2
:1042A00053810E9494B6D7016D937D938D939C9317
:1042B00013971AC20E940A9E85E40E94FB3880E38D
:1042C0008F0D0E94FB38000F111FF801E25FFE4FB7
:1042D0006081718187E696E00E94E69D85E20E94FA
:1042E000FB388AE00E94FB38FFC185E40E9435ADAF
:1042F000811173C080E50E94139A882351F00E94B7
:10430000E0996093031370930413809305139093C3
:10431000061389E40E94139A882381F00E94E09991
:104320002CEA35EC47E25EE30E9494B660930713F3
:10433000709308138093091390930A1384E40E94E6
:10434000139A882381F00E94E0992CEA35EC47E229
:104350005EE30E941DBE60930B1370930C13809359
:104360000D1390930E130E940A9E409103135091D7
:104370000413609105137091061387E796E00E947D
:10438000769D2CEA35EC47E25EE36091071370916D
:1043900008138091091390910A130E941DBEAB016E
:1043A000BC0183E796E00E94769D2CEA35EC47E25B
:1043B0005EE360910B1370910C1380910D1390913B
:1043C0000E130E9494B6AB01BC018FE696E00E94EA
:1043D000769D8AE00E94FB3887C10E94069E8BE78B
:1043E00096E00E94679D80C183E50E94139A182F72
:1043F000882371F00E94E0990E948FBE709345015E
:104400006093440121E0672B09F020E02093F4122F
:1044100080E50E94139A882359F02091440130913D
:104420004501232B11F00E94D0998093F4125CC1B6
:1044300011115AC10E940A9E89EA96E00E94679D66
:104440008091F412882319F081E996E002C08DE88A
:1044500096E00E94679D609144017091450188E952
:1044600096E00E94E69D84E996E00E94679D3CC12B
:104470000E94827C39C10E94D25436C10E945F9949
:10448000FE0131961F01882391F182FF03C040EFA6
:1044900054E002C047E058E081FF03C022EF34E05F
:1044A00002C027E038E080FF03C084EF94E002C040
:1044B00087E098E05F934F933F932F939F938F9361
:1044C0008CEB96E09F938F933F922F920E94C6B5FC
:1044D0000E940A9EC1010E94913960E0C1010E94C0
:1044E00027A40FB6F894DEBF0FBECDBFFDC000E617
:1044F00014E227ED33E139A328A329EAC22E24E2EE
:10450000D22E7F01F8016591759185919491A8A1B2
:10451000B9A18D909D90AD90BD90B9A3A8A3A50120
:1045200094010E9422BD2B013C01F701608371833D
:104530008283938320E030E040EA51EC0E9483BF05
:1045400087FD0AC020E030E040EA51E4C301B20137
:104550000E942EB618162CF4F601849118160CF44D
:1045600088C7D7018D909D90AD90BD907D0120E0D2
:1045700030E040EA51ECC501B4010E9483BF87FDE1
:1045800083C720E030E040EA51E4C501B4010E9455
:104590002EB618160CF084C777C70E94A64DA4C08B
:1045A0000E94D24CA1C061E083E50E94539B91E040
:1045B00089270E94BC4D98C081E0809312090E9417
:1045C0007BA410921209882309F48EC00E940A9ECF
:1045D0008AE097E00E94679D87C080915B1682FF0A
:1045E00004C0806480935B167FC083FF7DC00E94FF
:1045F000C9937AC081E0809393111092661860E0AD
:1046000083E50E94539B81116FC00E941C826CC085
:1046100083E50E94139A882339F00E94D0998093F1
:1046200013090E94709B60C00E940A9E8CE197E073
:104630000E94679D80911309882319F089E197E012
:1046400002C085E197E00E94679D8AE00E94FB38E6
:104650004BC00E94929B48C00E94FA87811144C0BF
:104660000E94689B0E942F850E9462A36D33710592
:104670008105910520F08DE497E00E947BAC89E4F0
:1046800097E00E947BAC85E397E00E94679D81E301
:1046900097E00E947BAC28C00E94E09325C0009167
:1046A0006318109164180E94D98460936D08709308
:1046B0006E0880936F08909370080023A9F00E9401
:1046C0000A9E84E50E94FB38B801772780E090E0DD
:1046D0000E946F3980E20E94FB3881E597E00E94DA
:1046E000679D02C00E94E0936896FFAD6897F11144
:1046F00002C00E94E98065960FAD6597009371082E
:10470000F8C620E030E0A901C701B6010E942EB62C
:10471000881F8827881F381609F4A4C020E030E0DD
:1047200040E85FEB28A739A74AA75BA728A139A1D2
:104730004AA15BA1C501B4010E9422BD20E030E086
:1047400040E05FE30E9494B668A379A38AA39BA389
:104750002CA13DA14EA15FA1C301B2010E9422BDC7
:1047600020E030E040E05FE30E9494B66CA37DA3BC
:104770008EA39FA328A139A14AA15BA1CA01B901B7
:104780000E9494B64B015C012CA13DA14EA15FA1FA
:10479000CA01B9010E9494B69B01AC01C501B401E4
:1047A0000E9423BD0E94D1BF4B015C019B01AC0163
:1047B000C701B6010E9422BD2B013C01A501940155
:1047C000C701B6010E9423BD9B01AC01C301B20128
:1047D0000E9494B66B017C0120E030E0A9010E94A8
:1047E00083BF87FD07C0C701B6010E94D1BF2B015F
:1047F0003C0103C0412C512C32016CA17DA18EA142
:104800009FA19058A50194010E941DBE28A539A51D
:104810004AA55BA50E9494B6A30192010E9494B69A
:1048200028A139A14AA15BA10E9423BD6B017C0193
:10483000A501940168A179A18AA19BA10E941DBE36
:1048400028A539A54AA55BA50E9494B6A3019201AB
:104850000E9494B62CA13DA14EA15FA10E9423BD50
:104860000C943F1420E030E040E85FE35BCF20E0B1
:1048700030E0A901C701B6010E942EB6882309F4D1
:10488000A4C018A619A61AA61BA6D701C601B0581F
:1048900088A399A3AAA3BBA328A539A54AA55BA56C
:1048A00050582CA33DA34EA35FA39C01AD01BC01B6
:1048B000CD010E9494B64B015C012CA13DA14EA1FB
:1048C0005FA1CA01B9010E9494B69B01AC01C50168
:1048D000B4010E9423BD0E94D1BF68AB79AB8AAB03
:1048E0009BAB8090D7139090D813A090D913B09021
:1048F000DA13A7019601C501B4010E9423BD6CAF74
:104900007DAF8EAF9FAF4090DB135090DC13609073
:10491000DD137090DE1328A539A54AA55BA5C30158
:10492000B2010E9423BD24966CAF7DAF8EAF9FAFC6
:104930002497C0902818D0902918E0902A18F09059
:104940002B1880912C1890912D18A0912E18B091B1
:104950002F188CA79DA7AEA7BFA7A7019601C501D9
:10496000B4010E9422BD4B015C012DEB37E346E808
:1049700055EB0E9483BF87FDCAC22DEB37E346E8A3
:1049800055E3C501B4010E942EB618160CF4BFC23F
:104990002CA53DA54EA55FA5C301B2010E9422BD75
:1049A0004B015C012DEB37E346E855EB0E9483BFDA
:1049B00087FDADC22DEB37E346E855E3C501B401F1
:1049C0000E942EB6181644F4A2C20E94069E85E9E3
:1049D00092E00E94679D88CE0230110509F48CC2D6
:1049E00008E110E0EBEDCE2EEFE0DE2EE9ECEE2E4E
:1049F000E0E4FE2E8091DF139091E013A091E1138B
:104A0000B091E2138CAB9DABAEABBFAB9C01AD01E3
:104A1000609130187091311880913218909133184C
:104A20000E9422BD2B013C01A701960168A979A92A
:104A30008AA99BA90E9494B64B015C0120E030E05A
:104A4000A901C301B2010E942EB68823C9F0A501B5
:104A50009401C501B4010E9494B64B015C01A3010D
:104A60009201C301B2010E9494B69B01AC01C50141
:104A7000B4010E9423BD0E94D1BF4B015C010DC057
:104A800020E030E0A901C501B4010E9483BF87FF87
:104A900004C0B7FAB094B7F8B0942FE632E143E817
:104AA0005AE3C501B4010E942EB687FD1AC22091B7
:104AB000341830913518409136185091371828AF76
:104AC00039AF4AAF5BAF8091E3139091E413A091AB
:104AD000E513B091E61388AB99ABAAABBBAB2AE068
:104AE00037ED43E25CE36091520170915301809194
:104AF0005401909155010E9494B66CA77DA78EA792
:104B00009FA76091080170910901072E000C880B86
:104B1000990B0E9435B69B01AC016CA57DA58EA5B5
:104B20009FA50E9494B66C8F7D8F8E8F9F8FC5013D
:104B3000B4010E94C5BE0E9496BE1B01601771079A
:104B400008F41801B10180E090E00E9433B64B01F7
:104B50005C019B01AC01C701B6010E941DBE6CA7A0
:104B60007DA78EA79FA7A5019401C301B2010E9452
:104B70001DBE60966CAF7DAF8EAF9FAF609728A9CA
:104B800039A94AA95BA968AD79AD8AAD9BAD0E94F0
:104B900022BDA50194010E941DBE64966CAF7DAF3D
:104BA0008EAF9FAF64972CA53DA54EA55FA5CA010A
:104BB000B9010E9494B66B017C019B01AC016CA50C
:104BC0007DA58EA59FA50E9494B620E030E040EC24
:104BD00050E40E941DBE9B01AC016CA57DA58EA575
:104BE0009FA50E9422BD68AF79AF8AAF9BAF20E03E
:104BF00030E040E05FE3C701B6010E9494B69B013C
:104C0000AC0160E070E080E89FE30E9422BD28963E
:104C10006CAF7DAF8EAF9FAF28970CA91DA92EA9B1
:104C20003FA909871A872B873C8728A939A94AA950
:104C30005BA92D873E874F87588B0E94D9848B01B3
:104C40009C0108531F4F2F4F3F4F2C960CAF1DAFA9
:104C50002EAF3FAF2C9748A059A06AA07BA021E0BF
:104C600030E03DAB2CAB39E138AB4CA95DA9421526
:104C7000530508F010C10E944E900E94D984DC01B7
:104C8000CB012C960CAD1DAD2EAD3FAD2C97801BEE
:104C9000910BA20BB30BB7FD10C00E94D9849B01EE
:104CA000AC0128533F4F4F4F5F4F2C962CAF3DAF79
:104CB0004EAF5FAF2C970E94B23938A9315038AB54
:104CC000332309F441C02CA13DA14EA15FA1289638
:104CD0006CAD7DAD8EAD9FAD28970E9494B66B01F3
:104CE0007C019201A30168AD79AD8AAD9BAD0E94B4
:104CF00094B6A70196010E9423BD7B018C0192010D
:104D0000A30128966CAD7DAD8EAD9FAD28970E9416
:104D100094B64B015C012CA13DA14EA15FA168ADF1
:104D200079AD8AAD9BAD0E9494B69B01AC01C501E3
:104D3000B4010E9422BD2B013C01C701D8018CA304
:104D40009DA3AEA3BFA34FC04CA95DA9BA0180E04B
:104D500090E00E9433B62CA53DA54EA55FA50E940C
:104D600094B64B015C010E9418BE6B017C01C50129
:104D7000B4010E94C3BF4B015C01A701960168A169
:104D800079A18AA19BA10E9494B62B013C0128A580
:104D900039A54AA55BA5C501B4010E9494B6A3013B
:104DA00092010E9423BD2B013C01A501940168A141
:104DB00079A18AA19BA10E9494B64B015C0128A510
:104DC00039A54AA55BA5C701B6010E9494B69B010F
:104DD000AC01C501B4010E9422BD6CA37DA38EA3CA
:104DE0009FA359E158AB9201A3016CAD7DAD8EAD8F
:104DF0009FAD0E9423BD69837A838B839C832CA102
:104E00003DA14EA15FA124966CAD7DAD8EAD9FAD51
:104E100024970E9423BD6D837E838F83988760963D
:104E20002CAD3DAD4EAD5FAD609769857A858B85C4
:104E30009C850E9423BD69877A878B879C876496AF
:104E40002CAD3DAD4EAD5FAD64976D857E858F8594
:104E500098890E9423BD6D877E878F87988BCE01AE
:104E600001960E9410A08E01045E1F4F9E01235FD9
:104E70003F4FAE01475F5F4FBE016B5F7F4FCE017B
:104E800001960E946C83882331F08CA99DA901961C
:104E90009DAB8CABEACE80E1E8E2F8E1DE01119651
:104EA00001900D928A95E1F7CE0101960E9410A023
:104EB0008E01045E1F4F9E01235F3F4FAE01475F8F
:104EC0005F4FBE016B5F7F4FCE0101960E946C83E6
:104ED00080E1FE013196A7EDB3E101900D928A9534
:104EE000E1F70E94D98460936D0870936E088093F7
:104EF0006F0890937008F8CB08E110E08BEDC82E96
:104F00008FE0D82E89ECE82E80ECF82E73CD2CADF6
:104F10003DAD4EAD5FADC701B6010E9422BD6B0134
:104F20007C0124962CAD3DAD4EAD5FAD24976CA5B4
:104F30007DA58EA59FA50E9422BD4B015C01A70106
:104F4000960168A179A18AA19BA10E9494B62B0128
:104F50003C01A50194016CA17DA18EA19FA10E949D
:104F600094B69B01AC01C301B2010E9423BD2B0189
:104F70003C01A501940168A179A18AA19BA10E948D
:104F800094B64B015C01A70196016CA17DA18EA195
:104F90009FA10E9494B69B01AC01C501B4010E947F
:104FA00022BDA30192010E94A2BD6B017C0120E001
:104FB00030E0A9010E942EB6882309F492CF20E0A8
:104FC00030E0A901C701B6010E942EB6082E000CE0
:104FD000990B8827990F881F9927880F991F832974
:104FE0008130910559F0029799F42BED3FE049EC9F
:104FF00050E4C701B6010E9423BD08C02BED3FE07D
:1050000049EC50E4C701B6010E9422BD6B017C014E
:1050100020E030E0A901C701B6010E9483BF87FFED
:1050200004C0C701B601905802C0C701B60120E014
:1050300030E040EC51E40E9494B62BED3FE049ECA7
:1050400050E40E941DBE0E9401BE0E9496BE8B01CC
:10505000672B09F0CFCC01E010E0CCCC0E94D254F9
:1050600010921D010E94D98460936D0870936E08A0
:1050700080936F0890937008809152019091530132
:10508000A0915401B09155018093740890937508D4
:10509000A0937608B0937708809108019091090158
:1050A000909373088093720884E690E090930901CE
:1050B0008093080181E0809388110E9457A38AE5BC
:1050C0000E94139A982E88E50E94139AB82E89E5BB
:1050D0000E94139AB812B2C09B1411F0AB2C06C0F8
:1050E000AA24A394BB24B3949924939482E50E94A8
:1050F000619A882369F00E94E0992B013C0120E02D
:1051000030E0A9010E942EB6882309F467C006C0CA
:10511000412C512C70EA672E70E4772EB11003C039
:10512000AA2009F465C080918A1186958695E09041
:10513000DF13F090E0130091E1131091E21380FF70
:105140007FC0B0E0A0E0F0E0E0E0A30192016B2FAF
:105150007A2F8F2F9E2F0E9423BD762E872E6C01D3
:105160009701A8010E942EB687FD03C0E72CF82CFA
:10517000860180E090E0A0E8B0E489839A83AB8365
:10518000BC8320E030E048E453E4B701C8010E944A
:105190002EB687FF05C0BE2DAF2DF02FE12F04C026
:1051A000B0E0A0E0F8E4E3E42091DB133091DC13FD
:1051B0004091DD135091DE136091D7137091D81395
:1051C0008091D9139091DA138E010F5F1F4F680100
:1051D000EB2EFA2E0F2F1E2F0E94D8A0BB2019F005
:1051E00080E00E94D1A1AA2019F081E00E94D1A103
:1051F000992019F082E00E94D1A10E948FA1809194
:105200008711809388118091740890917508A091FE
:105210007608B09177088093520190935301A09340
:105220005401B09355018091720890917308909346
:105230000901809308010E94B7A256CAA82E56CF32
:10524000BE2DAF2DF02FE12F80CF10921E1810939E
:1052500071084ACA0E94B2390C94AD1788E50E94C1
:10526000139A81115E9889E50E94139A81115E98C4
:105270008AE50E94139A882309F436CA159834CA1D
:105280000E94AC990E94A0802FCA0E94D5A30E94C0
:105290000BAD0C94C71A0E94B1A30C94FB1AA50184
:1052A0009401C701B6010E9483BF181694F083E8E9
:1052B00093E09F938F9381EB94E29F938F931F9240
:1052C0000E9441B10F900F900F900F900F900C948F
:1052D0001C1B8EE893E0EDCF0E94D25488E50E941B
:1052E000139A882331F05E9A80918A118E7F809381
:1052F0008A1189E50E94139A882331F05E9A809181
:105300008A118D7F80938A118AE50E94139A8823DF
:1053100009F4EAC9159A80918A118B7F80938A11CA
:10532000E3C9602F83E50E94539B0C94371F83E5EC
:105330000E94619A882391F00E94E0996093540F33
:105340007093550F8093560F9093570F60935C0F97
:1053500070935D0F80935E0F90935F0F80E50E94C6
:10536000619A882351F00E94E0996093540F7093E2
:10537000550F8093560F9093570F82E50E94619AC4
:10538000882351F00E94E0996093580F7093590F51
:1053900080935A0F90935B0F84E50E94619A882353
:1053A00009F4A2C90E94E09960935C0F70935D0FAD
:1053B00080935E0F90935F0F97C982E40E94139AC7
:1053C000882351F00E949C996093300F7093310FA5
:1053D0008093320F9093330F83E50E94139A8823B2
:1053E00051F00E94E0996093600F7093610F809379
:1053F000620F9093630F84E50E94139A882351F003
:105400000E94E0996093640F7093650F8093660F1C
:105410009093670F8AE40E94139A882309F464C961
:105420000E94E0996B017C012AE037ED43E25CE3E6
:105430000E9483BF87FD13C02AE939E949E95EE389
:10544000C701B6010E942EB618164CF0C092460A4B
:10545000D092470AE092480AF092490A45C90E9450
:10546000069E88E196E00E94679D3EC90E94B7A211
:105470003BC9B7FAB094B7F8B094D7018D929D921A
:10548000AD92BC9213976DC80E94069E8CEE96E07A
:105490000E94679D61E08EED96E00E94EAA324C918
:1054A0000C5F1F4FBFEFCB1ADB0AE4E20C361E077E
:1054B00009F028C890E2E92E93E1F92E10E0F101FD
:1054C00081919191A191B1911F01F70181939193E4
:1054D000A193B1937F01812F0E94F09F1F5F133032
:1054E00071F70E94B7A260E08EEC96E00E94EAA3FA
:1054F000FBC8C95ADF4F0FB6F894DEBF0FBECDBF51
:10550000DF91CF911F910F91FF90EF90DF90CF909F
:10551000BF90AF909F908F907F906F905F904F90D3
:105520003F902F900895CF93DF93CDB7DEB7CB5741
:10553000D3400FB6F894DEBF0FBECDBF813009F067
:1055400002C685E0E6EFF4E0DE01AD58BC4F019005
:105550000D928A95E1F721E040E2BE016D587C4F43
:1055600080E090E50E94F87B88E0E7EFF5E0DE015F
:10557000A45DBC4F01900D928A95E1F721E040E2D5
:10558000BE01645D7C4F80E190E50E94F87B85E080
:10559000EBEFF4E0DE01A359BC4F01900D928A9528
:1055A000E1F721E040E2BE0163597C4F80E290E5E3
:1055B0000E94F87B86E0E0E0F5E0DE01AF59BC4FE9
:1055C00001900D928A95E1F721E040E2BE016F590A
:1055D0007C4F80E592E50E94F87B89E0E6E0F5E00B
:1055E000DE01AD52BD4F01900D928A95E1F721E0A9
:1055F00040E2BE016D527D4F80E890E50E94F87B4D
:1056000086E0EFE0F5E0DE01A55ABC4F01900D9277
:105610008A95E1F721E040E2BE01655A7C4F80E0C7
:105620009AE50E94F87B87E0E9E0F6E0DE01AE5BF8
:10563000BC4F01900D928A95E1F721E040E2BE0156
:105640006E5B7C4F80E19AE50E94F87B8CE0E5E19F
:10565000F5E0DE01A752BE4F01900D928A95E1F769
:1056600021E040E2BE0167527E4F80E091E50E945A
:10567000F87B8CE0E1E2F5E0DE01A353BE4F019040
:105680000D928A95E1F721E040E2BE0163537E4F1F
:1056900080E191E50E94F87B8CE0EDE2F5E0DE012F
:1056A000AF53BE4F01900D928A95E1F721E040E2A1
:1056B000BE016F537E4F80E993E50E94F87B88E03E
:1056C000E9E3F5E0DE01AC5DBC4F01900D928A95F7
:1056D000E1F721E040E2BE016C5D7C4F80E391E5A3
:1056E0000E94F87B88E0E1E4F5E0DE01A45EBC4FB7
:1056F00001900D928A95E1F721E040E2BE01645EDF
:105700007C4F80E29AE50E94F87B85E0E9E4F5E0D1
:10571000DE01A959BC4F01900D928A95E1F721E075
:1057200040E2BE0169597C4F80E39AE50E94F87B14
:1057300086E0EEE4F5E0DE01AB5ABC4F01900D923D
:105740008A95E1F721E040E2BE016B5A7C4F80E58B
:105750009AE50E94F87B8BE0E4E5F5E0DE01A85BCA
:10576000BD4F01900D928A95E1F721E040E2BE0124
:10577000685B7D4F80E491E50E94F87B8EE0EFE569
:10578000F5E0DE01A750BF4F01900D928A95E1F739
:1057900021E040E2BE0167507F4F80E591E50E9425
:1057A000F87B89E0EDE6F5E0DE01A653BD4F019000
:1057B0000D928A95E1F721E040E2BE0166537D4FEC
:1057C00080E691E50E94F87B8AE0E6E7F5E0DE01FD
:1057D000A157BD4F01900D928A95E1F721E040E27B
:1057E000BE0161577D4F80E494E50E94F87B8CE018
:1057F000E6E8F5E0DE01AB54BE4F01900D928A95CC
:10580000E1F721E040E2BE016B547E4F80E594E574
:105810000E94F87B82E1E0E8F5E0DE019B960190D2
:105820000D928A95E1F721E040E2BE01655D7F4F70
:1058300080E694E50E94F87B80917C0590917D053F
:10584000A0917E05B0917F05C858DC4F888399836D
:10585000AA83BB83C857D34021E040E2BE01685809
:105860007C4F80E894E50E94F87B8CE0E2E9F5E06B
:10587000DE01A755BE4F01900D928A95E1F721E018
:1058800040E2BE0167557E4F80EA9BE50E94F87BAF
:105890008DE0EEE9F5E0DE01A85BBE4F01900D92D0
:1058A0008A95E1F721E040E2BE01685B7E4F80EB24
:1058B0009BE50E94F87B8CE0EBEAF5E0DE01A35665
:1058C000BE4F01900D928A95E1F721E040E2BE01C2
:1058D00063567E4F80EC9BE50E94F87B8DE0E7EB02
:1058E000F5E0DE01A55CBE4F01900D928A95E1F7CF
:1058F00021E040E2BE01655C7E4F80ED9BE50E94A9
:10590000F87B8CE0E4ECF5E0DE01AF56BE4F019091
:105910000D928A95E1F721E040E2BE016F567E4F7D
:1059200080EE9BE50E94F87B8AE0E0EDF5E0DE0189
:10593000AB57BD4F01900D928A95E1F721E040E20F
:10594000BE016B577D4F80E392E50E94F87B88E0B3
:10595000EAEDF5E0DE01AC5EBC4F01900D928A9558
:10596000E1F721E040E2BE016C5E7C4F80E492E50D
:105970000E94F87B80E1E2EEF5E0DE01A055BF4F2A
:1059800001900D928A95E1F721E040E2BE01605559
:105990007F4F80EC94E50E94F87B8DE0E2EFF5E02C
:1059A000DE01A25DBE4F01900D928A95E1F721E0E4
:1059B00040E2BE01625D7E4F80EB94E50E94F87B81
:1059C00081E1EFEFF5E0DE01A15ABF4F01900D92AA
:1059D0008A95E1F721E040E2BE01615A7F4F80E203
:1059E00091E50E94F87B88E0E0E1F6E0DE01A45F4B
:1059F000BC4F01900D928A95E1F721E040E2BE0193
:105A0000645F7C4F80E791E50E94F87B88E0E8E1E5
:105A1000F6E0DE01AC5FBC4F01900D928A95E1F794
:105A200021E040E2BE016C5F7C4F80E891E50E947E
:105A3000F87B88E0E0E2F6E0DE01A450BD4F019083
:105A40000D928A95E1F721E040E2BE0164507D4F5E
:105A500080E991E50E94F87B89E0E8E2F6E0DE016A
:105A6000AF53BD4F01900D928A95E1F721E040E2DE
:105A7000BE016F537D4F80EA91E50E94F87B89E07B
:105A8000E1E3F6E0DE01A954BD4F01900D928A9545
:105A9000E1F721E040E2BE0169547D4F80EB91E5E2
:105AA0000E94F87B8CE0EAE3F6E0DE01AB57BE4FE4
:105AB00001900D928A95E1F721E040E2BE016B571B
:105AC0007E4F80E892E50E94F87B8CE0E6E4F6E009
:105AD000DE01A758BE4F01900D928A95E1F721E0B3
